:020000040800F2
:10000000FFFF012059140008A1140008A1140008E2
:10001000A1140008A1140008A114000800000000A9
:10002000000000000000000000000000A114000813
:10003000A114000800000000A1140008A114000889
:10004000A1140008A1140008A1140008A1140008BC
:10005000A1140008A1140008A1140008A1140008AC
:10006000A1140008A1140008A1140008A11400089C
:10007000A1140008A1140008A1140008A11400088C
:10008000A1140008A1140008A1140008A11400087C
:10009000A1140008A1140008A1140008A11400086C
:1000A000A1140008A1140008A1140008A11400085C
:1000B000A1140008A1140008A1140008A11400084C
:1000C000A1140008A1140008A1140008A11400083C
:1000D000A1140008A1140008A1140008A11400082C
:1000E000A1140008A1140008A1140008A11400081C
:1000F000A1140008A1140008A1140008A11400080C
:10010000A1140008A1140008A1140008A1140008FB
:10011000A1140008A1140008A1140008A1140008EB
:10012000A1140008A1140008A1140008A1140008DB
:10013000A1140008A1140008A1140008A1140008CB
:10014000A1140008A1140008A1140008A1140008BB
:10015000A1140008A1140008A1140008A1140008AB
:10016000A1140008A1140008A1140008A11400089B
:10017000A1140008A1140008A1140008A11400088B
:08018000A1140008A1140008FD
:1001C00010B5054C237833B9044B13B10448AFF391
:1001D00000800123237010BD3004002000000000C7
:1001E000E0150008084B10B51BB108490848AFF3EB
:1001F00000800848036803B910BD074B002BFBD0F3
:10020000BDE81040184700BF000000003404002083
:10021000E0150008300400200000000080B400AFAA
:10022000124A124B1B6843F0010313600F4B00226C
:100230009A600E4A0D4B1B6823F0847323F48033BD
:1002400013600A4B0A4A5A60084A084B1B6823F499
:1002500080231360054B0022DA60064B4FF00062EA
:100260009A6000BFBD4680BC704700BF00380240A6
:100270001030002400ED00E080B487B000AF002310
:100280003B6100237B610223FB600023BB600223F0
:100290007B60324B9B6803F00C033B613B69042B92
:1002A00007D0082B09D0002B3FD12D4B2D4A1A60C7
:1002B0003FE02B4B2C4A1A603BE0284B5B6803F471
:1002C00080039B0DBB60254B5B6803F03F037B60A5
:1002D000BB68002B0DD0244A7B68B2FBF3F21F4BA6
:1002E000596847F6C0730B409B0903FB02F37B611F
:1002F0000CE01C4A7B68B2FBF3F2184B596847F6D6
:10030000C0730B409B0903FB02F37B61134B5B68DB
:1003100003F440331B0C01335B00FB607A69FB681C
:10032000B2FBF3F30E4A136003E00D4B0D4A1A6063
:1003300000BF0A4B9B6803F0F0031B090B4AD35C18
:100340003B61074B1A683B6922FA03F3044A1360C6
:1003500000BF1C37BD4680BC704700BF003802405C
:10036000000000200024F40000127A00F8150008B4
:1003700080B500AF0723022208214FF4A87000F0D7
:10038000FFFAA82000F0C6FB00F00AF84FF4E130B5
:1003900000F074FC00F088F8612000F019FDF9E726
:1003A00080B400AF1F4A1F4B1B6B43F00403136361
:1003B0001D4A1D4B1B6803F4003313601A4A1A4B85
:1003C0001B6843F4AA4343F055031360164A164BC7
:1003D0005B6803F400335360134A134B9B6803F4C8
:1003E00000339360104A104B9B6843F42A4343F058
:1003F000AA0393600C4A0C4BDB6803F40033D36010
:10040000094A094BDB6843F4AA4343F05503D36020
:10041000054B5B69044B00225A6100BFBD4680BC9E
:10042000704700BF003802400008024080B483B02B
:1004300000AF786039603B68002B15D07B68002BDB
:1004400012DB1748164B5A697968164B0B40002B84
:1004500003DA013B63F007030133194601238B40A4
:10046000DB431340436116E03B68002B13D17B68EC
:10047000002B10DB0A480A4B5A697968094B0B407C
:10048000002B03DA013B63F0070301331946012314
:100490008B401343436100BF0C37BD4680BC70479F
:1004A000000802400700008080B584B000AF002340
:1004B000FB6006E00121F868FFF7B8FFFB68013335
:1004C000FB60FB68072BF5DD0023BB6002E0BB6827
:1004D0000133BB60BB680F4A9342F8DD00237B60A9
:1004E00006E000217868FFF7A1FF7B6801337B609D
:1004F0007B68072BF5DD00233B6002E03B6801339E
:100500003B603B68034A9342F8DD00BF1037BD46AD
:1005100080BD00BF7FA2190080B500AF0B4B0C4A15
:100520001278D2435A610A4B1B785B00DAB2084B4F
:100530001A70074B1B78002B02D1054B01221A7051
:100540004FF4FA7000F06AFB00BF80BD0008024063
:100550000400002080B483B000AF786039600749A0
:100560003B6823F4FF7323F001037A6813438B6025
:1005700000BF0C37BD4680BC704700BF00ED00E0F7
:1005800080B485B000AF0346FB71FB79DB4303F019
:100590000703FB60FB681B02FB600D4BDB68BB6065
:1005A000BA684FF6FF031340BB60BB6843F0BF63FC
:1005B00043F40033BB60BA68FB681343BB60044A72
:1005C000BB68D36000BF1437BD4680BC704700BF16
:1005D00000ED00E090B585B000AF04460846114636
:1005E0001A462346FB710346BB710B467B711346CB
:1005F0003B713B791846FFF7C3FFFA793B79C3F1AA
:10060000040302FA03F3FB60BA793B790F2141FA44
:1006100003F313401A46FB681343FB60FB6803F0C7
:100620000F03FB6012497B795B09DAB21446104B69
:1006300053F822307A7902F01F02012000FA02F208
:10064000134341F824300A487B7909497A790A44EE
:1006500092F80023D1B2FA68D2B21201D2B20A43A0
:10066000D2B2034483F8002300BF1437BD4690BDC7
:1006700000E100E090B484B000AF0346FB710B468C
:10068000BB7113467B71BB7903F00303DBB29B00A4
:10069000FB73294A284B5B6C43F48043536427491E
:1006A000BB799B08DBB21C46244A023352F8233044
:1006B000FA7B0F2000FA02F2D2431A40A31C41F841
:1006C00023201E48BB799B08DBB21C461B4A023321
:1006D00052F82330F979FA7B01FA02F21A43A31C8B
:1006E00040F823201649164B1B68BA79012000FAFE
:1006F00002F213430B607B7903F00103002B08D057
:100700000F490F4BDB68BA79012000FA02F213435C
:10071000CB607B7903F00203002B08D00849084B1B
:100720009B68BA79012000FA02F213438B6000BF84
:100730001037BD4690BC7047003802400038014079
:10074000003C014080B483B000AF78600B46FB7082
:100750001346BB70FB78DB08DBB21846FB78DB087E
:10076000DBB21A467B68083253F82230FA7802F07E
:10077000070292000F2101FA02F2D24303EA0201BA
:100780007B6800F1080243F82210FB78DB08DBB23B
:100790001846FB78DB08DBB21A467B68083253F850
:1007A0002220B978FB7803F007039B0001FA03F3DA
:1007B00042EA03017B6800F1080243F8221000BFFF
:1007C0000C37BD4680BC704780B489B000AFF8607C
:1007D000B9607A603B600023FB610023BB610023AA
:1007E0007B610023FB6167E00122FB6902FA03F3EE
:1007F000BB61BA68BB6913407B617A69BB699A4285
:1008000057D1FB681B68FA695200032101FA02F212
:10081000D2431A40FB681A60FB681A68FB695B00E8
:10082000796801FA03F31A43FB681A607B68012BAD
:1008300002D07B68022B27D1FB689B68FA695200C3
:10084000032101FA02F2D2431A40FB689A60FB6866
:100850009A68FB695B00B96A01FA03F31A43FB6803
:100860009A60FB685B680121FA6901FA02F2D243DF
:100870001A40FB685A60FB685A683968FB6901FADC
:1008800003F31A43FB685A60FB68DB68FA6952009D
:10089000032101FA02F2D2431A40FB68DA60FB68D6
:1008A000DA68FB695B00F96A01FA03F31A43FB6833
:1008B000DA60FB690133FB61FB690F2B94D900BF40
:1008C0002437BD4680BC704780B400AF30BF00BF46
:1008D000BD4680BC704700BF80B400AF72B600BF99
:1008E000BD4680BC704700BF80B400AF62B600BF99
:1008F000BD4680BC704700BF80B483B000AF786055
:1009000080F30888704700BF0C37BD4680BC704735
:1009100080B500AF104A104B1B6943F0040313610C
:100920000E4A0E4B1B6C43F0805313640C4A0C4B65
:100930005B6843F480735360094A094B1B6843F0BA
:1009400004031360064A064B1B6843F0020313605E
:10095000FFF7BAFF00BF80BD00ED00E000380240A5
:100960000070004080B400AF034B044ADA6000BF5F
:10097000BD4680BC704700BF00ED00E00400FA05F2
:1009800080B487B000AFF860B9607A603B60002344
:10099000FB8200237B75414A404B1B6843F4803344
:1009A000136002E0FB8A0133FB823C4B1B6803F4BB
:1009B0000033002B04D1FB8A41F6FE729342F1D939
:1009C000FB8A41F6FF72934202D101237B755FE0FF
:1009D000324A324B1B6C43F080531364304A304B25
:1009E0001B6843F4404313602C4A2C4B9B6843F430
:1009F00014439360294A294B1B6823F080731360CA
:100A00002649FB689A01BB681A437B685B08013B77
:100A10001B041A433B681B06134343F480034B60DB
:100A20001E4A1E4B1B6843F08073136000BF1B4BB4
:100A30001B6803F00073002BF9D01A4A194B1B688E
:100A400043F480731360174A164B1B6843F400731A
:100A50001360144A134B1B6843F480631360114AFC
:100A6000104B1B6843F0050313600C4A0B4B9B684B
:100A700023F003039360094A084B9B6843F0020389
:100A8000936000BF054B9B6803F00C03082BF9D162
:100A90007B7D18461C37BD4680BC7047003802403D
:100AA00000700040003C024080B584B000AFF860A8
:100AB000B9607A603B60154A144B1B6843F0010330
:100AC0001360124B00229A60104A104B1B6823F0EF
:100AD000847323F4803313600C4B0D4A5A600B4A25
:100AE0000A4B1B6823F480231360084B0022DA6052
:100AF0003B687A68B968F868FFF742FF0021002078
:100B0000FFF728FD00BF1037BD4680BD003802400A
:100B10001030002480B483B000AF0346FB710E4A4E
:100B20000D4B1B6823F004031360FB79DB08DAB27A
:100B30000A4B1A70094B1B789BB21A465201D21A03
:100B400092001344DB009AB2054B1A8000BF0C37A9
:100B5000BD4680BC704700BF10E000E04C040020A0
:100B60004E04002080B485B000AF7860124A134B69
:100B70001B7819467B6803FB01F353600E4B002280
:100B80009A600D4B01221A600B4B1B68FB60FB68DF
:100B900003F00103002B04D0FB6803F48033002B27
:100BA000F2D0054B00221A60034B00229A6000BF6E
:100BB0001437BD4680BC704710E000E04C040020B4
:100BC00080B485B000AF0346FB80124AFB8812490F
:100BD000098801FB03F353600E4B00229A600D4B12
:100BE00001221A600B4B1B68FB60FB6803F00103DA
:100BF000002B04D0FB6803F48033002BF2D0054BAC
:100C000000221A60034B00229A6000BF1437BD46D1
:100C100080BC704710E000E04E04002080B584B036
:100C200000AF0346FB80FB88134AA2FB03235B0A49
:100C30009BB2FB73FB88104AA2FB0312520A4FF4CB
:100C4000077101FB02F29B1ABB8106E04FF40770AB
:100C5000FFF7B6FFFB7B013BFB73FB7B002BF5D162
:100C6000BB89002B03D0BB891846FFF7A9FF00BF43
:100C70001037BD4680BD00BF49D6B9F280B584B0FB
:100C800000AF78604E4A4E4B1B6B43F00103136379
:100C90004B4A4B4B5B6C43F010035364494A494B3E
:100CA0001B6823F470131360464A464B1B6843F4D9
:100CB00020131360434A434B5B6823F4C0635360C3
:100CC000404A404BDB6823F47013D3603D4A3D4BF0
:100CD000DB6843F4A013D3603A4A3A4B5B6A23F4CF
:100CE0007F635362374A374B5B6A43F4EE63536268
:100CF000354A354BDB6823F48063D360324A324B8C
:100D0000DB6823F48053D3602F4A2F4BDB6823F436
:100D10000043D3602C4A2C4B1B6923F440531361CE
:100D20007B681B01184600F0CFF903461946274897
:100D300000F0D6FA0346FB60F86800F06DFB03464E
:100D40007B817B89184600F0C3F903461946F86891
:100D500000F008F903464FF08341184600F00CFA02
:100D60000346184600F058FB03463B817B891B0174
:100D70007B817A893B8913447B81134A124B9B68A0
:100D80001B0C1B04936010490F4B9A687B8913431B
:100D90008B600D4A0C4BDB6843F00403D3600A4AB6
:100DA000094BDB6843F00803D360074A064BDB6856
:100DB00043F40053D36000BF1037BD4680BD00BF71
:100DC000003802400000024000100140A037A04C53
:100DD00080B483B000AF0346FB710949084B5A68E1
:100DE000FB7913434B6000BF054B1B6803F04003C6
:100DF000002BF9D0002318460C37BD4680BC704745
:100E00000010014080B584B000AF7860786800F0D1
:100E100037F8B8600023FB6009E0FB687A68134488
:100E20001B781846FFF7D4FFFB680133FB60FA68B4
:100E3000BB689A42F1D30A20FFF794FE00BF103737
:100E4000BD4680BD00000000000000000000000062
:100E50000000000000000000000000000000000092
:100E60000000000000000000000000000000000082
:100E70000000000000000000000000000000000072
:100E800090F800F06DE9024520F007016FF0000CCA
:100E900010F0070491F820F040F049804FF0000472
:100EA0006FF00700D1E9002391F840F000F108004D
:100EB00082FA4CF2A4FA8CF283FA4CF3A2FA8CF385
:100EC0004BBBD1E9022382FA4CF200F10800A4FAEC
:100ED0008CF283FA4CF3A2FA8CF3E3B9D1E9042340
:100EE00082FA4CF200F10800A4FA8CF283FA4CF377
:100EF000A2FA8CF37BB9D1E9062301F1200182FA31
:100F00004CF200F10800A4FA8CF283FA4CF3A2FA36
:100F10008CF3002BC6D0002A04BF04301A4612BA44
:100F2000B2FA82F2FDE8024500EBD2007047D1E947
:100F3000002304F00305C4F100004FEAC50514F0D6
:100F4000040F91F840F00CFA05F562EA05021CBFA7
:100F500063EA050362464FF00004A9E780F0004011
:100F600002E000BF81F0004142001FBF5FEA410381
:100F700092EA030F7FEA226C7FEA236C6AD04FEA81
:100F80001262D2EB1363C1BFD218414048404140C6
:100F9000B8BF5B42192B88BF704710F0004F40F478
:100FA000000020F07F4018BF404211F0004F41F494
:100FB000000121F07F4118BF494292EA030F3FD060
:100FC000A2F1010241FA03FC10EB0C00C3F1200373
:100FD00001FA03F100F0004302D5494260EB400002
:100FE000B0F5000F13D3B0F1807F06D340084FEA6D
:100FF000310102F10102FE2A51D2B1F1004F40EB62
:10100000C25008BF20F0010040EA030070474900C9
:1010100040EB000010F4000FA2F10102EDD1B0FA94
:1010200080FCACF1080CB2EB0C0200FA0CF0AABF89
:1010300000EBC25052421843BCBFD0401843704727
:1010400092F0000F81F4000106BF80F4000001322D
:10105000013BB5E74FEA41037FEA226C18BF7FEA04
:10106000236C21D092EA030F04D092F0000F08BF46
:101070000846704790EA010F1CBF0020704712F02D
:101080007F4F04D1400028BF40F00040704712F16C
:1010900000723CBF00F50000704700F0004343F0D1
:1010A000FE4040F4000070477FEA226216BF084607
:1010B0007FEA23630146420206BF5FEA412390EACA
:1010C000010F40F4800070474FF0000304E000BFC0
:1010D00010F0004348BF40425FEA000C08BF704771
:1010E00043F0964301464FF000001CE050EA010235
:1010F00008BF70474FF000030AE000BF50EA01024A
:1011000008BF704711F0004302D5404261EB410136
:101110005FEA010C02BF84460146002043F0B6435B
:1011200008BFA3F18053A3F50003BCFA8CF2083A80
:10113000A3EBC25310DB01FA02FC634400FA02FC89
:10114000C2F12002BCF1004F20FA02F243EB020090
:1011500008BF20F00100704702F1200201FA02FCF2
:10116000C2F1200250EA4C0021FA02F243EB0200E5
:1011700008BF20EADC7070474FF0FF0C1CEAD05229
:101180001EBF1CEAD15392EA0C0F93EA0C0F6FD0EA
:101190001A4480EA010C400218BF5FEA41211ED0C8
:1011A0004FF0006343EA501043EA5111A0FB0131B4
:1011B0000CF00040B1F5000F3EBF490041EAD37189
:1011C0005B0040EA010062F17F02FD2A1DD8B3F105
:1011D000004F40EBC25008BF20F00100704790F074
:1011E000000F0CF0004C08BF49024CEA502040EAC6
:1011F00051207F3AC2BFD2F1FF0340EAC25070478C
:1012000040F400004FF00003013A5DDC12F1190FC9
:10121000DCBF00F000407047C2F10002410021FA3B
:1012200002F1C2F1200200FA02FC5FEA310040F153
:10123000000053EA4C0308BF20EADC70704792F0CC
:10124000000F00F0004C02BF400010F4000F013A04
:10125000F9D040EA0C0093F0000F01F0004C02BFFF
:10126000490011F4000F013BF9D041EA0C018FE76E
:101270000CEAD15392EA0C0F18BF93EA0C0F0AD074
:1012800030F0004C18BF31F0004CD8D180EA01009A
:1012900000F00040704790F0000F17BF90F0004F33
:1012A000084691F0000F91F0004F14D092EA0C0F15
:1012B00001D142020FD193EA0C0F03D14B0218BFA8
:1012C000084608D180EA010000F0004040F0FE40EE
:1012D00040F40000704740F0FE4040F4400070478A
:1012E0004FF0FF0C1CEAD0521EBF1CEAD15392EA09
:1012F0000C0F93EA0C0F69D0A2EB030280EA010CF9
:1013000049024FEA402037D04FF0805343EA111191
:1013100043EA10130CF000408B4238BF5B0042F1EF
:101320007D024FF4000C8B4224BF5B1A40EA0C0094
:10133000B3EB510F24BFA3EB510340EA5C00B3EBC6
:10134000910F24BFA3EB910340EA9C00B3EBD10FB4
:1013500024BFA3EBD10340EADC001B0118BF5FEA06
:101360001C1CE0D1FD2A3FF650AF8B4240EBC2502F
:1013700008BF20F0010070470CF0004C4CEA5020F0
:101380007F32C2BFD2F1FF0340EAC250704740F43F
:1013900000004FF00003013A37E792F0000F00F031
:1013A000004C02BF400010F4000F013AF9D040EAAF
:1013B0000C0093F0000F01F0004C02BF490011F443
:1013C000000F013BF9D041EA0C0195E70CEAD1533B
:1013D00092EA0C0F08D142027FF47DAF93EA0C0F22
:1013E0007FF470AF084676E793EA0C0F04D14B0206
:1013F0003FF44CAF08466EE730F0004C18BF31F0B8
:10140000004CCAD130F000427FF45CAF31F00043B1
:101410007FF43CAF5FE700BF42000ED2B2F1FE4F57
:101420000BD34FF09E03B3EB126209D44FEA0023B3
:1014300043F0004323FA02F070474FF0000070477A
:1014400012F1610F01D1420202D14FF0FF3070471B
:101450004FF00000704700BF002103E00B4B5B58CA
:10146000435004310A480B4B42189A42F6D30A4AB9
:1014700002E0002342F8043B084B9A42F9D3FEF7FE
:10148000CDFE00F00FF8FEF773FF7047201600083E
:101490000000002030040020300400205004002010
:1014A000FEE7000070B50F4E0F4D761BB61018BF4B
:1014B000002405D0013455F8043B9847A642F9D1E1
:1014C0000A4E0B4D761B00F08BF8B61018BF0024A7
:1014D00006D0013455F8043B9847A642F9D170BDB7
:1014E00070BD00BF14160008141600081C16000872
:1014F00014160008024B13B1024800F005B87047FB
:101500000000000015150008002301461A46184681
:1015100000F014B838B5074D074C2C1BA41005D0AB
:10152000013C55F8043D9847002CF9D1BDE83840FE
:1015300000F05CB8201600081C1600082DE9F047E2
:10154000254C2568D5F84841064688469246994676
:10155000C4B360681F2817DC431C76B104EB800518
:101560000122C5F888A0D4F8881182401143022EC8
:10157000C4F88811C5F808911ED00230636044F8A1
:1015800020800020BDE8F087144B03B34FF4C870EF
:10159000AFF300800446D0B1D5F84831002780E889
:1015A0008800C5F8484138460123C4F88871C4F85A
:1015B0008C71002EE1D0D1E7D4F88C110A43C4F825
:1015C0008C21DAE705F5A674C5F84841C1E74FF06C
:1015D000FF30BDE8F08700BF1016000800000000D3
:1015E000F8B500BFF8BC08BC9E467047F8B500BF10
:0815F000F8BC08BC9E467047E0
:1015F80000000000000000000102030406070809BB
:0C160800000000000102030408000020A4
:08161400F5140008E5010008CF
:04161C00C101000800
:101620000024F4000100000000000000F40200208B
:101630005C030020C4030020000000000000000044
:10164000000000000000000000000000000000009A
:10165000000000000000000000000000000000008A
:10166000000000000000000000000000000000007A
:10167000000000000000000000000000000000006A
:10168000000000000000000000000000000000005A
:10169000000000000000000000000000000000004A
:1016A000000000000000000000000000000000003A
:1016B000000000000000000000000000000000002A
:1016C000000000000000000000000000000000001A
:1016D00001000000000000000E33CDAB34126DE6B7
:1016E000ECDE05000B000000000000000000000020
:1016F00000000000000000000000000000000000EA
:1017000000000000000000000000000000000000D9
:1017100000000000000000000000000000000000C9
:1017200000000000000000000000000000000000B9
:040000050800145982
:00000001FF
